:020000040800F2
:1000000000500020DD150008C5140008D1140008B8
:10001000D7140008DD140008E314000800000000F5
:10002000000000000000000000000000E9140008CB
:10003000F514000800000000011500080D15000867
:1000400025160008251600082516000825160008A4
:100050002516000825160008251600082516000894
:10006000251600082516000819150008291500088E
:100070002516000825160008251600082516000874
:1000800025160008251600083D150008251600084D
:1000900051150008251600082516000865150008EA
:1000A0002516000825160008251600082516000844
:1000B0002516000825160008251600082516000834
:1000C0002516000825160008251600082516000824
:1000D0002516000825160008251600082516000814
:1000E0002516000825160008251600080000000047
:1000F0000000000000000000000000000000000000
:0C01000000000000000000005FF808F1A3
:10010C0010B5054C237833B9044B13B10448AFF345
:10011C0000800123237010BD7C0100200000000032
:10012C0098A5000808B5034B1BB103490348AFF36E
:10013C00008008BD000000008001002098A5000888
:10014C0080F0004002E000BF81F0004142001FBF80
:10015C005FEA410392EA030F7FEA226C7FEA236C89
:10016C006AD04FEA1262D2EB1363C1BFD21841407E
:10017C0048404140B8BF5B42192B88BF704710F014
:10018C00004F40F4000020F07F4018BF404211F0B7
:10019C00004F41F4000121F07F4118BF494292EA1F
:1001AC00030F3FD0A2F1010241FA03FC10EB0C004B
:1001BC00C3F1200301FA03F100F0004302D54942D8
:1001CC0060EB4000B0F5000F13D3B0F1807F06D385
:1001DC0040084FEA310102F10102FE2A51D2B1F17D
:1001EC00004F40EBC25008BF20F0010040EA030072
:1001FC007047490040EB0000013A28BFB0F5000FF2
:10020C00EDD2B0FA80FCACF1080CB2EB0C0200FAA7
:10021C000CF0AABF00EBC25052421843BCBFD040F6
:10022C001843704792F0000F81F4000106BF80F470
:10023C0000000132013BB5E74FEA41037FEA226C33
:10024C0018BF7FEA236C21D092EA030F04D092F0FE
:10025C00000F08BF0846704790EA010F1CBF002032
:10026C00704712F07F4F04D1400028BF40F000408F
:10027C00704712F100723CBF00F50000704700F0AF
:10028C00004343F0FE4040F4000070477FEA2262D6
:10029C0016BF08467FEA23630146420206BF5FEAA7
:1002AC00412390EA010F40F4800070474FF00003A7
:1002BC0004E000BF10F0004348BF40425FEA000C6E
:1002CC0008BF704743F0964301464FF000001CE016
:1002DC0050EA010208BF70474FF000030AE000BF6C
:1002EC0050EA010208BF704711F0004302D54042AA
:1002FC0061EB41015FEA010C02BF8446014600201C
:10030C0043F0B64308BFA3F18053A3F50003BCFA36
:10031C008CF2083AA3EBC25310DB01FA02FC6344E3
:10032C0000FA02FCC2F12002BCF1004F20FA02F2EA
:10033C0043EB020008BF20F00100704702F12002DD
:10034C0001FA02FCC2F1200250EA4C0021FA02F23E
:10035C0043EB020008BF20EADC7070474FF0FF0C43
:10036C001CEAD0521EBF1CEAD15392EA0C0F93EA3E
:10037C000C0F6FD01A4480EA010C400218BF5FEAE0
:10038C0041211ED04FF0006343EA501043EA511153
:10039C00A0FB01310CF00040B1F5000F3EBF49004D
:1003AC0041EAD3715B0040EA010062F17F02FD2A51
:1003BC001DD8B3F1004F40EBC25008BF20F0010034
:1003CC00704790F0000F0CF0004C08BF49024CEA4B
:1003DC00502040EA51207F3AC2BFD2F1FF0340EADD
:1003EC00C250704740F400004FF00003013A5DDC4E
:1003FC0012F1190FDCBF00F000407047C2F100028F
:10040C00410021FA02F1C2F1200200FA02FC5FEA7B
:10041C00310040F1000053EA4C0308BF20EADC70C5
:10042C00704792F0000F00F0004C02BF400010F437
:10043C00000F013AF9D040EA0C0093F0000F01F0E4
:10044C00004C02BF490011F4000F013BF9D041EA06
:10045C000C018FE70CEAD15392EA0C0F18BF93EA08
:10046C000C0F0AD030F0004C18BF31F0004CD8D132
:10047C0080EA010000F00040704790F0000F17BFB9
:10048C0090F0004F084691F0000F91F0004F14D0FF
:10049C0092EA0C0F01D142020FD193EA0C0F03D157
:1004AC004B0218BF084608D180EA010000F000405A
:1004BC0040F0FE4040F40000704740F0FE4040F435
:1004CC00400070474FF0FF0C1CEAD0521EBF1CEAD4
:1004DC00D15392EA0C0F93EA0C0F69D0A2EB0302F2
:1004EC0080EA010C49024FEA402037D04FF080538C
:1004FC0043EA111143EA10130CF000408B4238BF51
:10050C005B0042F17D024FF4000C8B4224BF5B1A5E
:10051C0040EA0C00B3EB510F24BFA3EB510340EAAC
:10052C005C00B3EB910F24BFA3EB910340EA9C005A
:10053C00B3EBD10F24BFA3EBD10340EADC001B01CA
:10054C0018BF5FEA1C1CE0D1FD2A3FF650AF8B426E
:10055C0040EBC25008BF20F0010070470CF0004C7B
:10056C004CEA50207F32C2BFD2F1FF0340EAC250A6
:10057C00704740F400004FF00003013A37E792F067
:10058C00000F00F0004C02BF400010F4000F013AC5
:10059C00F9D040EA0C0093F0000F01F0004C02BFC0
:1005AC00490011F4000F013BF9D041EA0C0195E729
:1005BC000CEAD15392EA0C0F08D142027FF47DAFC2
:1005CC0093EA0C0F7FF470AF084676E793EA0C0FB2
:1005DC0004D14B023FF44CAF08466EE730F0004CB0
:1005EC0018BF31F0004CCAD130F000427FF45CAF40
:1005FC0031F000437FF43CAF5FE700BF4FEA4002AD
:10060C00B2F1FE4F0FD34FF09E03B3EB12620DD934
:10061C004FEA002343F0004310F0004F23FA02F09E
:10062C0018BF404270474FF00000704712F1610F45
:10063C0001D1420205D110F0004008BF6FF000401C
:10064C0070474FF00000704753B94AB9002908BFF2
:10065C0000281CBF4FF0FF314FF0FF3000F076B98F
:10066C00ADF1080C6DE904CE00F006F8DDF804E0FD
:10067C00DDE9022304B070472DE9F047089E0D46D2
:10068C0004468846002B4DD18A42944668D9B2FA6A
:10069C0082F252B101FA02F3C2F1200120FA01F107
:1006AC000CFA02FC41EA030894404FEA1C41B8FBE7
:1006BC00F1F71FFA8CFE01FB178807FB0EF0230CD9
:1006CC0043EA084398420AD91CEB030307F1FF35B0
:1006DC0080F01E81984240F21B81023F63441B1A3A
:1006EC00B3FBF1F001FB103300FB0EFEA4B244EAA5
:1006FC000344A6450AD91CEB040400F1FF3380F037
:10070C000981A64540F20681644402380021A4EB1D
:10071C000E0440EA07401EB10023D440C6E9004352
:10072C00BDE8F0878B4208D9002E00F0EE80002146
:10073C00C6E900050846BDE8F087B3FA83F1002945
:10074C004AD1AB4202D3824200F2FC80841A65EBA0
:10075C00030301209846002EE2D0C6E90048DFE7EB
:10076C0002B9FFDEB2FA82F2002A40F09180A1EBCE
:10077C000C0001214FEA1C471FFA8CFEB0FBF7F36B
:10078C0007FB1300250C45EA00450EFB03F0A842BD
:10079C0008D91CEB050503F1FF3802D2A84200F280
:1007AC00CE8043462D1AB5FBF7F007FB10550EFB18
:1007BC0000FEA4B244EA0544A64508D91CEB040487
:1007CC0000F1FF3502D2A64500F2B6802846A4EB14
:1007DC000E0440EA03409EE7C1F120078B4022FA49
:1007EC0007FC4CEA030C25FA07FA4FEA1C49BAFB42
:1007FC00F9F820FA07F309FB18AA8D401FFA8CFEB2
:10080C001D4300FA01F308FB0EF02C0C44EA0A44D9
:10081C00A04202FA01F20BD91CEB040408F1FF3AD6
:10082C0080F08880A04240F28580A8F102086444E0
:10083C00241AB4FBF9F009FB104400FB0EFEADB218
:10084C0045EA0444A64508D91CEB040400F1FF3525
:10085C006CD2A6456AD90238644440EA0840A0FB31
:10086C000295A4EB0E04AC42C846AE4656D353D008
:10087C00002E69D0B3EB080264EB0E0422FA01F3EC
:10088C0004FA07F71F43CC40C6E90074002147E780
:10089C000CFA02FCC2F1200125FA01F34FEA1C47C5
:1008AC0020FA01F195400D43B3FBF7F107FB11332F
:1008BC001FFA8CFE280C40EA034001FB0EF3834226
:1008CC0004FA02F408D91CEB000001F1FF382FD216
:1008DC0083422DD902396044C01AB0FBF7F307FBF1
:1008EC001300ADB245EA004503FB0EF0A84208D94F
:1008FC001CEB050503F1FF3816D2A84214D9023BB4
:10090C006544281A43EA014138E73146304607E787
:10091C002F46E4E61846F9E64B45A9D2B9EB020896
:10092C0065EB0C0E0138A3E74346EAE7284694E74B
:10093C004146D1E7D0467BE76444023847E7023BA7
:10094C0065442FE7084606E73146E9E6704700BFE5
:10095C0080B500AF00F074FA00BF00F05FFA0346F8
:10096C00002BFAD00D490E4800F088F9102000F049
:10097C0019F903461A460A4B9A70202000F012F916
:10098C0003461A46064BDA7000F078F800F05AF875
:10099C0003461A46024B1A7100BF80BD9901002014
:1009AC009801002090B583B002AF00F037FA0346EF
:1009BC00002B03D02149224800F060F9102000F0F0
:1009CC00CBF80346002B06D0102000F0EBF80346C2
:1009DC001A461B4B9A70202000F0BEF80346002BE1
:1009EC0006D0202000F0DEF803461A46144BDA70CD
:1009FC0000F07AFA0346002B06D000F07FFA03468B
:100A0C009BB2184600F02AF800F01CF803461A4670
:100A1C000B4B1A710A4B93F90000094B93F9011017
:100A2C00074B9A78064BDC78054B1B7900932346D1
:100A3C0000F07CFA00BF0437BD4690BD9901002040
:100A4C009801002080B400AF034B1B685B6BDBB2DA
:100A5C001846BD4680BC7047B003002080B483B0FC
:100A6C0000AF0346FB80044B1B68FA885A6300BF37
:100A7C000C37BD4680BC7047B003002080B582B0F7
:100A8C0000AF00210B4804F099FB0023FB7109E037
:100A9C00FB790133FB710A2000F022FE054B1B6829
:100AAC00FA795A63FB79642BF2D100BF00BF083787
:100ABC00BD4680BDB003002080B483B000AF0346B8
:100ACC00FB80FB88102B03D1074B01221A7005E029
:100ADC00FB88202B02D1054B01221A7000BF0C376A
:100AEC00BD4680BC704700BF9D0100209E010020C8
:100AFC0080B584B000AF78600B467B800023BB735D
:100B0C0000237B731FE000237B737B881946786876
:100B1C0002F054F80346FB7312E07B7B01337B73CA
:100B2C007B881946786802F049F803461A46FB7B25
:100B3C00934200D007E07B7B0A2B01D10123BB73CE
:100B4C007B7B0A2BE9D1BB7B012BDCD1FB7B1846D1
:100B5C001037BD4680BD000080B485B000AF0346A1
:100B6C00FB800023FB73FB88102B02D0202B07D0BB
:100B7C000DE00A4B1B78FB73084B00221A7006E041
:100B8C00074B1B78FB73064B00221A7000BFFB7BD4
:100B9C0018461437BD4680BC704700BF9D0100202D
:100BAC009E01002080B582B000AF0346FB80FB881D
:100BBC00102B02D0202B09D011E010210A48FFF78E
:100BCC0097FF0346C3F10103DBB209E0202106487D
:100BDC00FFF78EFF0346C3F10103DBB200E00023F5
:100BEC0018460837BD4680BD0008014080B582B06C
:100BFC0000AF78607B681B68044A934201D100F017
:100C0C001BF800BF0837BD4680BD00BF0024014063
:100C1C0080B582B000AF0346FB80FB88102B02D05E
:100C2C00FB88202B03D1FB881846FFF745FF00BF3C
:100C3C000837BD4680BD000080B500AF064800F007
:100C4C0029FF054B9B6A23F04003034A9362034B35
:100C5C0001221A7000BF80BD3C030020A0010020BF
:100C6C0080B500AFC8220349034800F035FE00BF31
:100C7C0080BD00BFA60100203C0300202DE9B04F31
:100C8C0088B000AFF860B9604FF000024FF000037D
:100C9C00C7E906230023FB8217E0FB8A5D4A5B0051
:100CAC001344DB889BB2002298469146D7E9062371
:100CBC0012EB0801396043EB09037B60D7E9002391
:100CCC00C7E90623FB8A0233FB82FB8AC72BE4D9D4
:100CDC00D7E906014FF064024FF00003FFF7B4FCB4
:100CEC0002460B4692B24B4B5A804FF000024FF02B
:100CFC000003C7E906230123FB8213E0FB8A454A64
:100D0C005B001344DB889BB200221C461546D7E9D6
:100D1C00062312EB040A43EB050BC7E906ABFB8A6F
:100D2C000233FB82FB8AC72BE8D9D7E906014FF0C7
:100D3C0064024FF00003FFF787FC02460B4692B2A9
:100D4C00344B9A80334B5B881846FFF7AFFA034657
:100D5C0031491846FFF7B6FB03461846FFF74EFC21
:100D6C0003467B7597F91530002B08DB97F9153086
:100D7C007F2B04D07B7D7F3BDBB27B750FE097F93B
:100D8C001530B3F1FF3F04DA7B7D7F3BDBB27B7523
:100D9C0005E097F915307F2B01D100237B75FB689B
:100DAC007A7D1A701B4B9B881846FFF77FFA034617
:100DBC0019491846FFF786FB03461846FFF71EFC39
:100DCC0003467B7597F91530002B08DB97F9153026
:100DDC007F2B04D07B7D7F3BDBB27B750FE097F9DB
:100DEC001530B3F1FF3F04DA7B7D7F3BDBB27B75C3
:100DFC0005E097F915307F2B01D100237B75BB687B
:100E0C007A7D1A70FFF72CFF00BF2037BD46BDE876
:100E1C00B08F00BFA00100208180804180B400AF62
:100E2C00064B1B78002B04D0044B00221A700123B4
:100E3C0000E000231846BD4680BC7047A00100208E
:100E4C0080B500AF034801F049F9FFF709FF00BF77
:100E5C0080BD00BF3C03002080B483B000AF0346CC
:100E6C000A46FB711346BB71BB79002B0DD0114B9D
:100E7C009B785AB2FB79012101FA03F35BB213435D
:100E8C005BB2DAB20B4B9A700EE00A4B9B785AB2FB
:100E9C00FB79012101FA03F35BB2DB435BB2134034
:100EAC005BB2DAB2034B9A7000BF0C37BD4680BC04
:100EBC00704700BF3803002080B483B000AF786067
:100ECC00074B1B78002B06D17B681A78054B1A70E0
:100EDC00034B01221A7000BF0C37BD4680BC704713
:100EEC00360300200000002080B400AF024B1B78BA
:100EFC001846BD4680BC70473603002080B483B0D2
:100F0C0000AF084B1B78FB71FB79642B01D9642370
:100F1C00FB71054B00221A70FB7918460C37BD4645
:100F2C0080BC7047000000203603002090B583B0D1
:100F3C0000AF0446084611461A462346FB71034689
:100F4C00BB710B467B7113463B71FB1D1A780E4B24
:100F5C001A70BB1D1A780C4B5A707B7919460020FD
:100F6C00FFF77AFF3B7919460120FFF775FF064A18
:100F7C003B7ED37004220449044807F081FD00BF76
:100F8C000C37BD4690BD00BF380300200004002084
:100F9C0080B500AF00F042FB00F00FF800F04CF908
:100FAC0000F02CF900F066F800F0B2F808F0D0FE72
:100FBC00FFF7CEFCFFF7F6FCFCE780B594B000AF72
:100FCC0007F1280328220021184609F0D7FA07F167
:100FDC00140300221A605A609A60DA601A613B1D91
:100FEC0000221A605A609A60DA600123BB624FF4E7
:100FFC008033FB6200233B630123BB6302237B64CE
:10100C004FF48033BB644FF4E013FB6407F1280307
:10101C00184603F0AFFA0346002B01D000F054F948
:10102C000F237B610223BB610023FB614FF48063C0
:10103C003B6200237B6207F114030221184603F084
:10104C001BFD0346002B01D000F03EF912237B6000
:10105C004FF40043FB6000233B613B1D184603F03B
:10106C008FFE0346002B01D000F02EF900BF503745
:10107C00BD4680BD80B584B000AF3B1D00221A6018
:10108C005A609A60204B214A1A601F4B4FF48072B1
:10109C009A601D4B01221A731B4B00221A751A4BB6
:1010AC004FF46022DA61184B00225A60164B022270
:1010BC001A61154800F038FB0346002B01D000F0F4
:1010CC0003F901237B600123BB600723FB603B1DFD
:1010DC0019460D4800F008FE0346002B01D000F025
:1010EC00F3F802237B600223BB603B1D19460648C4
:1010FC0000F0FAFD0346002B01D000F0E5F800BF2C
:10110C001037BD4680BD00BF3C03002000240140C9
:10111C0080B58EB000AF07F1280300221A605A6028
:10112C009A60DA6007F1200300221A605A603B1DB6
:10113C0000221A605A609A60DA601A615A619A61E8
:10114C002C4B2D4A1A602B4B40F2CF225A60294B64
:10115C0000229A60274B6422DA60264B00221A6127
:10116C00244B80229A61234803F080FF0346002B16
:10117C0001D000F0A9F84FF48053BB6207F12803AB
:10118C0019461C4804F07AF90346002B01D000F0F4
:10119C009BF8184803F0B9FF0346002B01D000F070
:1011AC0093F800233B6200237B6207F1200319466E
:1011BC00104804F0CBFC0346002B01D000F084F85F
:1011CC0060237B600023BB600023FB6000237B61FA
:1011DC003B1D00221946074804F092F80346002BE9
:1011EC0001D000F071F8034800F034F900BF383733
:1011FC00BD4680BDB00300200004004080B582B025
:10120C0000AF0C4B5B690B4A43F001035361094B74
:10121C005B6903F001037B607B68002200210B20DB
:10122C0001F0E9F80B2001F002F900BF0837BD46C8
:10123C0080BD00BF0010024080B586B000AF07F142
:10124C00080300221A605A609A60DA601B4B9B6993
:10125C001A4A43F020039361184B9B6903F0200357
:10126C007B607B68154B9B69144A43F004039361C4
:10127C00124B9B6903F004033B603B683023BB605B
:10128C000F4BFB6001233B6107F1080319460D4826
:10129C0001F010FB002200210A2001F0ACF80A201A
:1012AC0001F0C5F800220021172001F0A4F8172046
:1012BC0001F0BDF800BF1837BD4680BD00100240DC
:1012CC00000031100008014080B400AF00BFBD46E3
:1012DC0080BC704780B485B000AF154B9B69144A35
:1012EC0043F001039361124B9B6903F00103BB6054
:1012FC00BB680F4BDB690E4A43F08053D3610C4B38
:10130C00DB6903F080537B607B680A4B5B68FB6096
:10131C00FB6823F0E063FB60FB6843F00073FB6049
:10132C00044AFB68536000BF1437BD4680BC70474D
:10133C00001002400000014080B588B000AF78601A
:10134C0007F1100300221A605A609A60DA607B6819
:10135C001B682C4A934251D12B4B9B692A4A43F46C
:10136C0000739361284B9B6903F40073FB60FB686B
:10137C00254B9B69244A43F004039361224B9B69E0
:10138C0003F00403BB60BB6806233B6103237B6152
:10139C0007F1100319461D4801F08CFA1C4B1D4A2D
:1013AC001A601B4B00225A60194B00229A60184B92
:1013BC008022DA60164B4FF480721A61144B4FF492
:1013CC0080625A61124B00229A61114B0022DA6141
:1013DC000F4801F047F80346002B01D0FFF774FFCC
:1013EC007B680B4A1A620A4A7B685362002200210E
:1013FC00122001F000F8122001F019F800BF20377C
:10140C00BD4680BD00240140001002400008014090
:10141C006C0300200800024080B485B000AF7860F7
:10142C007B681B68094A93420BD1094BDB69084A5C
:10143C0043F00203D361064BDB6903F00203FB604C
:10144C00FB6800BF1437BD4680BC704700040040E9
:10145C000010024080B588B000AF786007F110032F
:10146C0000221A605A609A60DA607B681B680F4A27
:10147C00934217D10E4B9B690D4A43F004039361C1
:10148C000B4B9B6903F00403FB60FB6840233B613F
:10149C0002237B610323FB6107F110031946054806
:1014AC0001F008FA00BF2037BD4680BD00040040A3
:1014BC00001002400008014080B400AF00BFBD46E0
:1014CC0080BC704780B400AFFEE780B400AFFEE78D
:1014DC0080B400AFFEE780B400AFFEE780B400AF8D
:1014EC0000BFBD4680BC704780B400AF00BFBD4696
:1014FC0080BC704780B400AF00BFBD4680BC704755
:10150C0080B500AF00F0D0F800BF80BD80B500AF53
:10151C00102001F06BFB00BF80BD000080B500AF58
:10152C00024801F093F800BF80BD00BF6C0300209F
:10153C0080B500AF024800F0F8FA00BF80BD00BFD4
:10154C003C03002080B500AF024801F098FC00BFBE
:10155C0080BD00BFC408002080B500AF202001F082
:10156C0045FB00BF80BD000080B400AF154B1B686D
:10157C00144A43F001031360124B5A681149124B81
:10158C0013404B600F4B1B680E4A23F0847323F4FB
:10159C00803313600B4B1B680A4A23F480231360BF
:1015AC00084B5B68074A23F4FE035360054B4FF46A
:1015BC001F029A60054B4FF000629A6000BFBD4657
:1015CC0080BC7047001002400000FFF800ED00E006
:1015DC00002103E00B4B5B58435004310A480B4B82
:1015EC0042189A42F6D30A4A02E0002342F8043B1E
:1015FC00084B9A42F9D3FFF7B7FF08F09BFFFFF7B0
:10160C00C7FC704738A60008000000207C010020B1
:10161C007C010020080C0020FEE7000080B500AF24
:10162C00084B1B68074A43F010031360032000F0BB
:10163C00D7FE002000F008F8FFF74CFE00231846F8
:10164C0080BD00BF0020024080B582B000AF786042
:10165C00124B1A68124B1B7819464FF47A73B3FB72
:10166C00F1F3B2FBF3F3184600F0EFFE0346002B48
:10167C0001D001230EE07B680F2B0AD80022796879
:10168C004FF0FF3000F0B7FE064A7B681360002372
:10169C0000E0012318460837BD4680BD0400002039
:1016AC000C0000200800002080B400AF054B1B7814
:1016BC001A46054B1B681344034A136000BFBD4612
:1016CC0080BC70470C000020F803002080B400AFF1
:1016DC00024B1B681846BD4680BC7047F8030020BF
:1016EC0080B584B000AF7860FFF7F0FFB8607B681E
:1016FC00FB60FB68B3F1FF3F05D00A4B1B781A4621
:10170C00FB681344FB6000BFFFF7E0FF0246BB68B9
:10171C00D31AFA689A42F7D800BF00BF1037BD46FB
:10172C0080BD00BF0C00002080B586B000AF786093
:10173C000023FB7500233B610023BB600023FB608F
:10174C007B68002B01D10123BEE07B689B68002BDA
:10175C007B689B6A002B09D17B680022DA627B686C
:10176C00002283F824207868FFF7E6FD786800F003
:10177C000DFC0346FB757B689B6A03F01003002B82
:10178C0040F09980FB7D002B40F095807B689B6A34
:10179C0023F4885323F0020343F002027B689A621D
:1017AC007B685A687B68DB691A437B681B7B5B0030
:1017BC001343BA681343BB607B689B68B3F5807FA7
:1017CC0003D07B689B68012B02D14FF4807300E03F
:1017DC0000233A6913433B617B681B7D012B19D1B4
:1017EC007B681B7B002B09D17B689B69013B5A03EF
:1017FC003B69134343F400633B610BE07B689B6ADA
:10180C0043F020027B689A627B68DB6A43F001023A
:10181C007B68DA627B681B685B6823F469417B68D0
:10182C001B683A690A435A607B681B689A68284BA4
:10183C0013407A681268B9680B4393607B689B68A5
:10184C00B3F5807F03D07B689B68012B04D17B6848
:10185C001B69013B1B05FB607B681B68DB6A23F47F
:10186C0070017B681B68FA680A43DA627B681B6844
:10187C009A68184B1340BA689A420BD17B680022C5
:10188C00DA627B689B6A23F0030343F001027B68F6
:10189C009A6218E07B689B6A23F0120343F01002F3
:1018AC007B689A627B68DB6A43F001027B68DA62D0
:1018BC000123FB7507E07B689B6A43F010027B6891
:1018CC009A620123FB75FB7D18461837BD4680BD17
:1018DC00FDF7E1FFFE0E1FFF80B586B000AFF8608C
:1018EC00B9607A600023FB75FB681B68644A9342FD
:1018FC0004D0FB681B68634A934206D1604B5B685B
:10190C0003F47023002B40F0B380FB6893F8243071
:10191C00012B01D10223AEE0FB68012283F82420C5
:10192C00F86800F0D9FA0346FB75FB7D002B40F0FC
:10193C009A80FB689B6A23F4706323F0010343F4E1
:10194C008072FB689A62FB681B684E4A934205D111
:10195C004B4B5B6803F47023002B15D1FB689B6A1F
:10196C0023F48012FB689A62FB681B685B6803F4C3
:10197C008063002B26D0FB689B6A23F4405343F40E
:10198C008052FB689A621DE0FB689B6A43F48012EC
:10199C00FB689A62FB681B68394A934204D0FB6867
:1019AC001B68384A93420DD1354B5B6803F4806356
:1019BC00002B07D0FB689B6A23F4405343F48052FE
:1019CC00FB689A62FB689B6A03F48053002B06D079
:1019DC00FB68DB6A23F00602FB68DA6202E0FB6854
:1019EC000022DA62FB68002283F82420FB681B6A61
:1019FC00254A9A62FB681B6A244ADA62FB681B6AF6
:101A0C00234A1A63FB681B686FF002021A60FB68BA
:101A1C001B689A68FB681B6842F480729A60FB68CA
:101A2C00186AFB681B684C331946BA687B6800F06F
:101A3C0073FDFB681B689B6803F46023B3F5602F90
:101A4C0008D1FB681B689A68FB681B6842F4A0020B
:101A5C009A600FE0FB681B689A68FB681B6842F48D
:101A6C0080129A6006E0FB68002283F8242001E0D3
:101A7C000123FB75FB7D18461837BD4680BD00BFA2
:101A8C0000240140002801401B200008972000087A
:101A9C00B320000880B584B000AF78600023FB73DE
:101AAC007B6893F82430012B01D1022339E07B6849
:101ABC00012283F82420786800F068FA0346FB734F
:101ACC00FB7B002B28D17B681B689A687B681B68A2
:101ADC0022F480729A607B681B6A93F82130022B87
:101AEC001AD17B681B6A184600F075FD0346FB7320
:101AFC00FB7B002B0AD17B689B6A23F4885323F071
:101B0C00010343F001027B689A6205E07B689B6AE3
:101B1C0043F040027B689A627B68002283F82420A1
:101B2C00FB7B18461037BD4680BD80B582B000AF38
:101B3C0078607B681B685B6803F02003202B40D126
:101B4C007B681B681B6803F00203022B39D17B688E
:101B5C009B6A03F01003002B05D17B689B6A43F44E
:101B6C0000727B689A627B681B689B6803F4602335
:101B7C00B3F5602F1DD17B681B7B002B19D17B68C3
:101B8C001B685A687B681B6822F020025A607B68CD
:101B9C009B6A23F480727B689A627B689B6A03F46D
:101BAC008053002B05D17B689B6A43F001027B6854
:101BBC009A627868FFF71AF87B681B686FF012025C
:101BCC001A607B681B685B6803F08003802B4FD125
:101BDC007B681B681B6803F00403042B48D17B68EB
:101BEC009B6A03F01003002B05D17B689B6A43F4BE
:101BFC0000527B689A627B681B689B6803F4E04325
:101C0C00B3F5E04F12D07B681B685B6803F480630C
:101C1C00002B25D17B681B689B6803F46023B3F50C
:101C2C00602F1DD17B681B7B002B19D17B681B6837
:101C3C005A687B681B6822F080025A607B689B6A3A
:101C4C0023F480527B689A627B689B6A03F48073EE
:101C5C00002B05D17B689B6A43F001027B689A627A
:101C6C00786800F0E7FA7B681B686FF00C021A606A
:101C7C007B681B685B6803F04003402B14D17B68C6
:101C8C001B681B6803F00103012B0DD17B689B6A59
:101C9C0043F480327B689A62786800F012F87B68B3
:101CAC001B686FF001021A6000BF0837BD4680BD8B
:101CBC0080B483B000AF786000BF0C37BD4680BCE9
:101CCC00704780B483B000AF786000BF0C37BD465E
:101CDC0080BC704780B483B000AF786000BF0C3715
:101CEC00BD4680BC7047000080B485B000AF786002
:101CFC0039600023FB730023BB607B6893F82430AE
:101D0C00012B01D10223DCE07B68012283F8242023
:101D1C003B685B68062B1CD87B681B68596B3B685F
:101D2C005A6813469B001344053B1F2202FA03F327
:101D3C00DB4319403B6818683B685A6813469B00A4
:101D4C001344053B00FA03F27B681B680A435A6391
:101D5C003CE03B685B680C2B1CD87B681B68196BE0
:101D6C003B685A6813469B001344233B1F2202FA1C
:101D7C0003F3DB4319403B6818683B685A68134609
:101D8C009B001344233B00FA03F27B681B680A4355
:101D9C001A631BE07B681B68D96A3B685A68134658
:101DAC009B001344413B1F2202FA03F3DB4319400F
:101DBC003B6818683B685A6813469B001344413BC8
:101DCC0000FA03F27B681B680A43DA623B681B6803
:101DDC00092B1CD97B681B68D9683B681A681346A9
:101DEC005B0013441E3B072202FA03F3DB4319404A
:101DFC003B6898683B681A6813465B0013441E3BAB
:101E0C0000FA03F27B681B680A43DA6019E07B680E
:101E1C001B6819693B681A6813465B001344072258
:101E2C0002FA03F3DB4319403B6898683B681A6875
:101E3C0013465B00134400FA03F27B681B680A43E9
:101E4C001A613B681B68102B03D03B681B68112B75
:101E5C0032D17B681B681D4A934225D17B681B6875
:101E6C009B6803F40003002B26D17B681B689A68DF
:101E7C007B681B6842F400029A603B681B68102B5D
:101E8C001AD1134B1B68134AA2FB03239A0C13465B
:101E9C009B0013445B00BB6002E0BB68013BBB6072
:101EAC00BB68002BF9D107E07B689B6A43F02002EA
:101EBC007B689A620123FB737B68002283F82420E1
:101ECC00FB7B18461437BD4680BC7047002401408C
:101EDC000400002083DE1B4380B584B000AF786023
:101EEC000023FB600023BB607B681B689B6803F0CE
:101EFC000103012B40D07B681B689A687B681B68C8
:101F0C0042F001029A601F4B1B681F4AA2FB03237D
:101F1C009B0CBB6002E0BB68013BBB60BB68002B49
:101F2C00F9D1FFF7D3FBF8601FE0FFF7CFFB0246B8
:101F3C00FB68D31A022B18D97B681B689B6803F0CB
:101F4C000103012B11D07B689B6A43F010027B6864
:101F5C009A627B68DB6A43F001027B68DA627B6819
:101F6C00002283F82420012307E07B681B689B6810
:101F7C0003F00103012BD8D1002318461037BD46BE
:101F8C0080BD00BF0400002083DE1B4380B584B0FD
:101F9C0000AF78600023FB607B681B689B6803F0D4
:101FAC000103012B2ED17B681B689A687B681B6828
:101FBC0022F001029A60FFF789FBF8601BE0FFF743
:101FCC0085FB0246FB68D31A022B14D97B681B686D
:101FDC009B6803F00103012B0DD17B689B6A43F0D6
:101FEC0010027B689A627B68DB6A43F001027B68B3
:101FFC00DA62012307E07B681B689B6803F001032E
:10200C00012BDCD0002318461037BD4680BD80B5AF
:10201C0084B000AF78607B685B6AFB60FB689B6A8E
:10202C0003F05003002B27D1FB689B6A43F400722A
:10203C00FB689A62FB681B689B6803F46023B3F52A
:10204C00602F15D1FB681B7B002B11D1FB689B6AA1
:10205C0023F48072FB689A62FB689B6A03F48053DA
:10206C00002B05D1FB689B6A43F00102FB689A6266
:10207C00F868FEF7BBFD04E0FB681B6A1B6B786815
:10208C00984700BF1037BD4680BD80B584B000AF07
:10209C0078607B685B6AFB60F868FFF709FE00BF3D
:1020AC001037BD4680BD80B584B000AF78607B68CA
:1020BC005B6AFB60FB689B6A43F04002FB689A62B8
:1020CC00FB68DB6A43F00402FB68DA62F868FFF72E
:1020DC0001FE00BF1037BD4680BD000090B587B033
:1020EC0000AF78600023FB750023FB607B6893F8DE
:1020FC002430012B01D1022395E07B68012283F867
:10210C0024207868FFF742FF0346FB75FB7D002B0C
:10211C0040F084807B689B6A23F4885323F002038D
:10212C0043F002027B689A62414B1C68022002F069
:10213C00DDFE0346B4FBF3F35B00FB6002E0FB68DF
:10214C00013BFB60FB68002BF9D17868FFF7C4FEFC
:10215C007B681B689A687B681B6842F008029A606F
:10216C00FFF7B4FA38611BE0FFF7B0FA02463B699F
:10217C00D31A0A2B14D97B681B689B6803F00803DD
:10218C00002B0DD07B689B6A23F0120343F01002E6
:10219C007B689A627B68002283F82420012342E04A
:1021AC007B681B689B6803F00803002BDCD17B6801
:1021BC001B689A687B681B6842F004029A60FFF700
:1021CC0085FA38611BE0FFF781FA02463B69D31AA6
:1021DC000A2B14D97B681B689B6803F00403002B43
:1021EC000DD07B689B6A23F0120343F010027B68CE
:1021FC009A627B68002283F82420012313E07B6819
:10220C001B689B6803F00403002BDCD17B689B6A82
:10221C0023F0030343F001027B689A627B6800227F
:10222C0083F82420FB7D18461C37BD4690BD00BFAB
:10223C000400002080B483B000AF786000BF0C377E
:10224C00BD4680BC7047000080B485B000AF78609C
:10225C007B6803F00703FB600C4BDB68BB60BA6860
:10226C004FF6FF031340BB60FB681A02BB681343B5
:10227C0043F0BF6343F40033BB60044ABB68D360D4
:10228C0000BF1437BD4680BC704700BF00ED00E0B6
:10229C0080B400AF044BDB681B0A03F0070318463D
:1022AC00BD4680BC704700BF00ED00E080B483B039
:1022BC0000AF0346FB7197F90730002B0BDBFB7962
:1022CC0003F01F02064997F907305B09012000FA59
:1022DC0002F241F8232000BF0C37BD4680BC70478A
:1022EC0000E100E080B483B000AF03463960FB71BD
:1022FC0097F90730002B0ADB3B68DAB20C4997F9E7
:10230C0007301201D2B20B4483F800230AE03B6879
:10231C00DAB20849FB7903F00F03043B1201D2B285
:10232C000B441A7600BF0C37BD4680BC704700BF0B
:10233C0000E100E000ED00E080B489B000AFF8608F
:10234C00B9607A60FB6803F00703FB61FB69C3F1BA
:10235C000703042B28BF0423BB61FB690433062B42
:10236C0002D9FB69033B00E000237B614FF0FF3295
:10237C00BB6902FA03F3DA43BB681A407B699A40E3
:10238C004FF0FF317B6901FA03F3D9437B680B40B3
:10239C00134318462437BD4680BC704780B582B0C5
:1023AC0000AF78607B68013BB3F1807F01D30123E0
:1023BC000FE00A4A7B68013B53600F214FF0FF305E
:1023CC00FFF790FF054B00229A60044B07221A601E
:1023DC00002318460837BD4680BD00BF10E000E062
:1023EC0080B582B000AF78607868FFF72DFF00BF32
:1023FC000837BD4680BD80B586B000AF0346B960D6
:10240C007A60FB7300237B61FFF742FF78617A6887
:10241C00B9687869FFF790FF024697F90F301146BB
:10242C001846FFF75FFF00BF1837BD4680BD80B56B
:10243C0082B000AF0346FB7197F907301846FFF7DF
:10244C0035FF00BF0837BD4680BD80B582B000AFF8
:10245C0078607868FFF7A2FF034618460837BD4638
:10246C0080BD000080B485B000AF78600023FB60B5
:10247C007B68002B01D1012343E07B681B681A4663
:10248C00224B1344224AA2FB03231B099A007B68AC
:10249C001A647B681F4ADA637B68022283F8212066
:1024AC007B681B681B68FB60FB6823F47F5323F07D
:1024BC003003FB607B685A687B689B681A437B68B7
:1024CC00DB681A437B681B691A437B685B691A4398
:1024DC007B689B691A437B68DB691343FA68134377
:1024EC00FB607B681B68FA681A607B6800229A6341
:1024FC007B68012283F821207B68002283F820204E
:10250C00002318461437BD4680BC7047F8FFFDBF4A
:10251C00CDCCCCCC0000024080B586B000AFF860CA
:10252C00B9607A603B600023FB75FB6893F8203040
:10253C00012B01D102234AE0FB68012283F8202001
:10254C00FB6893F82130012B3AD1FB68022283F807
:10255C002120FB6800229A63FB681B681A68FB68E1
:10256C001B6822F001021A603B687A68B968F86847
:10257C0000F072F9FB68DB6A002B08D0FB681B6863
:10258C001A68FB681B6842F00E021A600FE0FB68C9
:10259C001B681A68FB681B6822F004021A60FB684F
:1025AC001B681A68FB681B6842F00A021A60FB6819
:1025BC001B681A68FB681B6842F001021A6005E090
:1025CC00FB68002283F820200223FB75FB7D184654
:1025DC001837BD4680BD80B485B000AF786000234D
:1025EC00FB737B6893F82130022B08D07B680422A4
:1025FC009A637B68002283F82020012320E07B680B
:10260C001B681A687B681B6822F00E021A607B68D4
:10261C001B681A687B681B6822F001021A607B68D1
:10262C001A6C7B68DB6B012101FA02F25A607B6841
:10263C00012283F821207B68002283F82020FB7B79
:10264C0018461437BD4680BC7047000080B584B076
:10265C0000AF78607B68DB6B1B68FB607B681B687A
:10266C001B68BB607B681B6C04229A40FB681340A0
:10267C00002B4FD0BB6803F00403002B4AD07B68BF
:10268C001B681B6803F02003002B07D17B681B68B9
:10269C001A687B681B6822F004021A607B681B684E
:1026AC00664A934229D07B681B68654A934222D0C4
:1026BC007B681B68634A93421AD07B681B68624A2A
:1026CC00934212D07B681B68604A93420AD07B68A5
:1026DC001B685F4A934202D14FF480030EE04FF027
:1026EC0080630BE04FF4802308E04FF4804305E057
:1026FC004FF4806302E0402300E00423554A53600A
:10270C007B68DB6A002B00F094807B68DB6A78685E
:10271C0098478EE07B681B6C02229A40FB68134042
:10272C00002B56D0BB6803F00203002B51D07B6802
:10273C001B681B6803F02003002B0BD17B681B6804
:10274C001A687B681B6822F00A021A607B680122F7
:10275C0083F821207B681B68384A934229D07B6818
:10276C001B68374A934222D07B681B68354A9342D8
:10277C001AD07B681B68344A934212D07B681B6862
:10278C00324A93420AD07B681B68314A934202D189
:10279C004FF400130EE04FF000730BE04FF40033D6
:1027AC0008E04FF4005305E04FF4007302E02023DF
:1027BC0000E00223274A53607B68002283F8202024
:1027CC007B689B6A002B34D07B689B6A786898473F
:1027DC002FE07B681B6C08229A40FB681340002B8F
:1027EC0028D0BB6803F00803002B23D07B681B6840
:1027FC001A687B681B6822F00E021A607B681A6CE0
:10280C007B68DB6B012101FA02F25A607B680122C2
:10281C009A637B68012283F821207B68002283F86D
:10282C0020207B681B6B002B04D07B681B6B7868AB
:10283C00984700BF00BF1037BD4680BD080002405E
:10284C001C0002403000024044000240580002408C
:10285C006C0002400000024080B485B000AFF8600C
:10286C00B9607A603B60FB681A6CFB68DB6B01211A
:10287C0001FA02F25A60FB681B683A685A60FB68FE
:10288C005B68102B08D1FB681B687A689A60FB6840
:10289C001B68BA68DA6007E0FB681B68BA689A6064
:1028AC00FB681B687A68DA6000BF1437BD4680BCD1
:1028BC007047000080B48BB000AF786039600023A3
:1028CC007B6200233B6269E101227B6A02FA03F31B
:1028DC00FB613B681B68FA691340BB61BA69FB6911
:1028EC009A4240F058813B685B689A4A93425ED0AA
:1028FC00984A934275D8984A934258D0964A934234
:10290C006FD8964A934252D0944A934269D8944ACB
:10291C0093424CD0924A934263D8924A934246D007
:10292C00904A93425DD8122B2AD8122B59D801A267
:10293C0052F823F0BB29000895290008A7290008A4
:10294C00E9290008EF290008EF290008EF29000801
:10295C00EF290008EF290008EF290008EF290008EB
:10296C00EF290008EF290008EF290008EF290008DB
:10297C00EF290008EF2900089D290008B12900085B
:10298C00794A934213D02CE03B68DB683B6229E028
:10299C003B68DB6804333B6224E03B68DB6808334C
:1029AC003B621FE03B68DB680C333B621AE03B6820
:1029BC009B68002B02D104233B6213E03B689B68AD
:1029CC00012B05D108233B627B68FA691A6109E087
:1029DC0008233B627B68FA695A6103E000233B627F
:1029EC0000E000BFBB69FF2B01D87B6801E07B686E
:1029FC0004337B61BB69FF2B02D87B6A9B0002E02E
:102A0C007B6A083B9B003B617B691A680F213B6921
:102A1C0001FA03F3DB431A40396A3B6901FA03F309
:102A2C001A437B691A603B685B6803F08053002B88
:102A3C0000F0B1804D4B9B694C4A43F0010393610C
:102A4C004A4B9B6903F00103BB60BB68484A7B6A35
:102A5C009B08023352F82330FB607B6A03F00303BC
:102A6C009B000F2202FA03F3DB43FA681340FB606E
:102A7C007B68404A934213D07B683F4A93420DD007
:102A8C007B683E4A934207D07B683D4A934201D112
:102A9C00032306E0042304E0022302E0012300E008
:102AAC0000237A6A02F0030292009340FA681343FF
:102ABC00FB602F497B6A9B080233FA6841F823209C
:102ACC003B685B6803F48033002B06D02D4B1A68EF
:102ADC002C49BB6913430B6006E02A4B1A68BB698F
:102AEC00DB43284913400B603B685B6803F40033FD
:102AFC00002B06D0234B5A682249BB6913434B6009
:102B0C0006E0204B5A68BB69DB431E4913404B60FF
:102B1C003B685B6803F48013002B06D0194B9A6852
:102B2C001849BB6913438B6006E0164B9A68BB6966
:102B3C00DB43144913408B603B685B6803F4001360
:102B4C00002B21D00F4BDA680E49BB691343CB60C5
:102B5C0021E000BF000032100000311000002210F4
:102B6C000000211000001210000011100010024093
:102B7C000000014000080140000C01400010014021
:102B8C0000140140000401400B4BDA68BB69DB43C5
:102B9C0009491340CB607B6A01337B623B681A683E
:102BAC007B6A22FA03F3002B7FF48EAE00BF00BFCA
:102BBC002C37BD4680BC70470004014080B485B002
:102BCC0000AF78600B467B807B689A687B881340EB
:102BDC00002B02D00123FB7301E00023FB73FB7B72
:102BEC0018461437BD4680BC7047000080B582B0D3
:102BFC0000AF0346FB80084B5A69FB881340002B3F
:102C0C0006D0054AFB885361FB881846FEF700F88E
:102C1C0000BF0837BD4680BD00040140F0B58BB045
:102C2C0006AF78607B68002B01D10123FDE07B6847
:102C3C0093F8A932DBB2002B06D17B68002283F813
:102C4C00A822786807F0E8F97B68032283F8A922A8
:102C5C007B681B68184602F0FDFF7B681B683B60B5
:102C6C007E686D4606F110040FCC0FC523682B60EF
:102C7C00331D0ECB386802F0C7FF0346002B05D07E
:102C8C007B68022283F8A9220123CEE07B681B68B3
:102C9C000021184602F0F8FF0023FB734CE0FB7B8D
:102CAC0079685A1C13469B001344DB000B44013318
:102CBC0001221A70FB7B79685A1C13469B00134443
:102CCC00DB000B44FA7B1A70FA7BFB7B98B27968B9
:102CDC0013469B001344DB000B44363302461A8028
:102CEC00FB7B79685A1C13469B001344DB000B4496
:102CFC00033300221A70FA7B796813469B00134445
:102D0C00DB000B44383300221A60FA7B79681346D7
:102D1C009B001344DB000B443C3300221A60FA7B0B
:102D2C00796813469B001344DB000B4440330022AC
:102D3C001A60FB7B0133FB73FA7B7B685B689A42FE
:102D4C00ADD30023FB7344E0FA7B796813469B00F8
:102D5C001344DB000B4403F2691300221A70FA7B54
:102D6C00796813469B001344DB000B4403F5B473E2
:102D7C00FA7B1A70FA7B796813469B001344DB00CC
:102D8C000B4403F26B1300221A70FA7B796813461A
:102D9C009B001344DB000B4403F5BC7300221A6048
:102DAC00FA7B796813469B001344DB000B4403F554
:102DBC00BE7300221A60FA7B796813469B00134499
:102DCC00DB000B4403F5C07300221A60FB7B01335C
:102DDC00FB73FA7B7B685B689A42B5D37B681B6894
:102DEC003B607E686D4606F110040FCC0FC523685E
:102DFC002B60331D0ECB386802F052FF0346002BBC
:102E0C0005D07B68022283F8A92201230DE07B68A0
:102E1C00002283F824207B68012283F8A9227B6896
:102E2C001B68184605F004FC002318461437BD46F1
:102E3C00F0BD80B582B000AF78607B6893F8A832A3
:102E4C00012B01D1022316E07B68012283F8A82212
:102E5C007B681B68184602F0E7FE0121786807F0D2
:102E6C0032FB7B681B68184605F0D8FB7B68002298
:102E7C0083F8A822002318460837BD4680BD80B5CC
:102E8C0088B000AF78607B681B68184605F0DAFBE9
:102E9C00034603F40043B3F5004F02D1786800F009
:102EAC0048FB7B681B68184605F0CCFB034603F413
:102EBC008063B3F5806F12D17B681B68B3F8443024
:102ECC009AB27B681B6822F4806292B2A3F8442009
:102EDC00786807F01CF90021786800F023F97B680A
:102EEC001B68184605F0AEFB034603F48043B3F5AC
:102EFC00804F0BD17B681B68B3F844309AB27B6867
:102F0C001B6822F4804292B2A3F844207B681B68B1
:102F1C00184605F097FB034603F40053B3F5005F26
:102F2C000BD17B681B68B3F844309AB27B681B6882
:102F3C0022F4005292B2A3F844207B681B68184616
:102F4C0005F080FB034603F48053B3F5805F26D174
:102F5C007B681B68B3F840309AB27B681B6822F020
:102F6C00040292B2A3F840207B681B68B3F840308F
:102F7C009AB27B681B6822F0080292B2A3F8402038
:102F8C00786807F0FDF87B681B68B3F844309AB298
:102F9C007B681B6822F4805292B2A3F844207B68B1
:102FAC001B68184605F04EFB034603F40063B3F5AB
:102FBC00006F40F082800023FB7710E07B681B6879
:102FCC001A46FB7F9B001A44FB7F128892B25B006F
:102FDC0020333B4423F8142CFB7F0133FB77FB7F1E
:102FEC00072BEBD97B681B68B3F840309AB27B682F
:102FFC001B6842F0010292B2A3F840207B681B6868
:10300C00B3F840309AB27B681B6822F0010292B28E
:10301C00A3F8402000BF7B681B68B3F844309BB218
:10302C0003F48063002BF6D07B681B68B3F8443044
:10303C009AB27B681B6822F4806292B2A3F8442097
:10304C000023FB770FE0FB7F7A6812681146FA7F4A
:10305C0092000A445B0020333B4433F8143C138049
:10306C00FB7F0133FB77FB7F072BECD97B681B685D
:10307C00B3F840309AB27B681B6842F0080292B2F7
:10308C00A3F840207B681B68B3F844309AB27B6885
:10309C001B6822F4006292B2A3F844207B681B6880
:1030AC00B3F840309AB27B681B6842F0040292B2CB
:1030BC00A3F84020786807F049F87B681B6818462D
:1030CC0005F0C0FA034603F40073B3F5007F0ED18C
:1030DC007B681B68B3F844309AB27B681B6822F497
:1030EC00007292B2A3F84420786807F002F87B686B
:1030FC001B68184605F0A6FA034603F48073B3F573
:10310C00807F0BD17B681B68B3F844309AB27B6824
:10311C001B6822F4807292B2A3F8442000BF2037BF
:10312C00BD4680BD80B582B000AF78600B46FB70A9
:10313C007B6893F8A832012B01D1022313E07B6842
:10314C00012283F8A8227B68FA7883F824207B6814
:10315C001B68FA781146184605F04DFA7B68002278
:10316C0083F8A822002318460837BD4680BD80B5D9
:10317C0084B000AF7860084611461A460346FB70CF
:10318C000B463B801346BB700023FB7297F9033050
:10319C00002B0EDAFB7803F007035A1C13469B0036
:1031AC001344DB007A681344FB60FB6801225A70FD
:1031BC000EE0FB7803F0070213469B001344DB0080
:1031CC0003F5B4737A681344FB60FB6800225A70F1
:1031DC00FB7803F00703DAB2FB681A703A88FB68D5
:1031EC001A61FB68BA78DA70FB685B78002B04D044
:1031FC00FB681B789AB2FB68DA81BB78022B02D190
:10320C00FB6800221A717B6893F8A832012B01D15C
:10321C0002230EE07B68012283F8A8227B681B68DE
:10322C00F968184602F05CFD7B68002283F8A8223E
:10323C00FB7A18461037BD4680BD80B584B000AF10
:10324C0078600B46FB7097F90330002B0EDAFB7895
:10325C0003F007035A1C13469B001344DB007A68E7
:10326C001344FB60FB6801225A700EE0FB7803F0FC
:10327C00070213469B001344DB0003F5B4737A6812
:10328C001344FB60FB6800225A70FB7803F00703C1
:10329C00DAB2FB681A707B6893F8A832012B01D163
:1032AC0002230EE07B68012283F8A8227B681B684E
:1032BC00F968184603F07EF87B68002283F8A82290
:1032CC00002318461037BD4680BD80B586B000AFD0
:1032DC00F8607A603B600B46FB72FB7A03F00702E6
:1032EC0013469B001344DB0003F5B473FA681344D4
:1032FC007B617B697A685A617B693A689A617B6900
:10330C000022DA617B6900225A70FB7A03F0070312
:10331C00DAB27B691A70FB7A03F00703002B06D133
:10332C00FB681B687969184603F030FA05E0FB6806
:10333C001B687969184603F029FA002318461837D8
:10334C00BD4680BD80B586B000AFF8607A603B604A
:10335C000B46FB72FB7A03F007035A1C13469B00C7
:10336C001344DB00FA6813447B617B697A685A6109
:10337C007B693A689A617B69012283F824207B6916
:10338C003A681A627B690022DA617B6901225A7001
:10339C00FB7A03F00703DAB27B691A70FB7A03F04D
:1033AC000703002B06D1FB681B687969184603F0EC
:1033BC00EDF905E0FB681B687969184603F0E6F93E
:1033CC00002318461837BD4680BD80B584B000AFC9
:1033DC0078600B46FB70FB7803F007027B685B6838
:1033EC009A4201D901234CE097F90330002B0EDAF5
:1033FC00FB7803F007035A1C13469B001344DB00B5
:10340C007A681344FB60FB6801225A700CE0FA786E
:10341C0013469B001344DB0003F5B4737A68134422
:10342C00FB60FB6800225A70FB6801229A70FB78E3
:10343C0003F00703DAB2FB681A707B6893F8A832C2
:10344C00012B01D102231CE07B68012283F8A82206
:10345C007B681B68F968184604F0D0FFFB7803F012
:10346C000703002B08D17B681A687B6803F52C7363
:10347C001946104605F0F5F87B68002283F8A8225F
:10348C00002318461037BD4680BD80B584B000AF10
:10349C0078600B46FB70FB7803F00F027B685B686F
:1034AC009A4201D9012340E097F90330002B0EDA40
:1034BC00FB7803F007035A1C13469B001344DB00F4
:1034CC007A681344FB60FB6801225A700EE0FB78AB
:1034DC0003F0070213469B001344DB0003F5B4739F
:1034EC007A681344FB60FB6800225A70FB68002268
:1034FC009A70FB7803F00703DAB2FB681A707B68EA
:10350C0093F8A832012B01D102230EE07B68012233
:10351C0083F8A8227B681B68F968184604F0BEFF84
:10352C007B68002283F8A822002318461037BD467A
:10353C0080BD80B58EB000AF7860ECE27B681B6814
:10354C00B3F84430FB85FB8DDBB203F00F0387F837
:10355C002D3097F82D30002B40F06181FB8D03F05E
:10356C001003002B52D17B681B681B889BB223F481
:10357C00E14323F07003FB817B681A68FB896FEAD7
:10358C0043436FEA53439BB213807B6828337B62BF
:10359C007B681B68B3F850309BB21A467B6A1B7869
:1035AC00DB00134402335B007A681268134403F5A2
:1035BC0080631B88C3F309027B6ADA617B6A5A69F0
:1035CC007B6ADB691A447B6A5A610021786806F0D1
:1035DC0076FD7B6893F82430DBB2002B00F09B82E5
:1035EC007B6A9B69002B40F096827B6893F82430B1
:1035FC00DBB263F07F03DAB27B681B6892B2A3F88C
:10360C004C207B68002283F8242084E27B6803F53D
:10361C00B4737B627B681B681B887B857B8D03F492
:10362C000063002B34D07B681B68B3F850309BB21E
:10363C001A467B6A1B78DB00134406335B007A68FE
:10364C001268134403F580631B88C3F309027B6A79
:10365C00DA617B6818687B6803F52C717B6ADA8801
:10366C007B6ADB699BB205F04CF87B681B681B8896
:10367C009AB240F68F7313403B827B681B683A8A80
:10368C0042F0800292B21A80786806F0EBFC42E2BB
:10369C00B7F92A30002B80F23E827B681B681B88AE
:1036AC009AB240F68F731340BB837B681B68BA8B4E
:1036BC0042F0800292B21A807B681B68B3F85030DB
:1036CC009BB21A467B6A1B78DB00134406335B0003
:1036DC007A681268134403F580631B88C3F30902EC
:1036EC007B6ADA617B6ADB69002B19D07B6A5B69C8
:1036FC00002B15D07B6818687B6A59697B6ADA885D
:10370C007B6ADB699BB204F0FCFF7B6A5A697B6ABB
:10371C00DB691A447B6A5A610021786806F0B4FCB4
:10372C007B681B681B889BB203F40063002B40F082
:10373C00F2817B681B68BB617B681B68B3F85030F7
:10374C009BB21A46BB691344BB61BB6903F20C43C1
:10375C007B617B6A1B69002B12D17B691B889BB236
:10376C0023F4F8439AB27B691A807B691B889BB25D
:10377C006FEA43436FEA53439AB27B691A802FE096
:10378C007B6A1B693E2B13D87B6A1B695B083B6306
:10379C007B6A1B6903F00103002B02D03B6B0133E6
:1037AC003B633B6B9BB29B029AB27B691A8017E01E
:1037BC007B6A1B695B093B637B6A1B6903F01F0314
:1037CC00002B02D13B6B013B3B633B6B9BB29B02DF
:1037DC009BB26FEA43436FEA53439AB27B691A80F8
:1037EC007B681B681B889BB223F4804323F0700317
:1037FC007B827B8A83F480537B827B8A83F40053A5
:10380C007B827B681A687B8A43F07F4343F47F0397
:10381C0043F4004343F080039BB213807BE17B684D
:10382C001B681A4697F82D309B0013441B887B8528
:10383C00B7F92A30002B80F2EA807B681B681A46A5
:10384C0097F82D309B0013441B889AB240F68F7367
:10385C0013403B857B681B681A4697F82D309B00FC
:10386C0013443A8D42F0800292B21A8097F82D20C0
:10387C0013469B001344DB0003F5B4737A681344BE
:10388C007B627B6A1B7B002B22D17B681B68B3F8A5
:10389C0050309BB21A467B6A1B78DB00134406330C
:1038AC005B007A681268134403F580631B88C3F3CA
:1038BC000903FB86FB8E002B00F087807B68186861
:1038CC007B6A59697B6ADA88FB8E04F01AFF7CE00C
:1038DC007B6ADB78022B08D17B8D1A46796A786873
:1038EC0000F027F90346FB866FE07B681B681A46DD
:1038FC007B6A1B789B0013441B889BB223F4E04328
:10390C0023F070037B847B681B681A467B6A1B78E8
:10391C009B001A447B8C43F07F4343F47F0343F4B6
:10392C00004343F0C0039BB213807B681B681A46AC
:10393C007B6A1B789B0013441B889BB203F4804367
:10394C00002B21D07B681B68B3F850309BB21A4611
:10395C007B6A1B78DB00134402335B007A681268C5
:10396C00134403F580631B88C3F30903FB86FB8EAA
:10397C00002B2AD07B6818687B6A59697B6A1A8984
:10398C00FB8E04F0BEFE20E07B681B68B3F8503061
:10399C009BB21A467B6A1B78DB00134406335B0030
:1039AC007A681268134403F580631B88C3F3090318
:1039BC00FB86FB8E002B08D07B6818687B6A5969E4
:1039CC007B6A5A89FB8E04F09CFE7B6ADA69FB8E5B
:1039DC001A447B6ADA617B6A5A69FB8E1A447B6AE9
:1039EC005A617B6A9B69002B04D0FA8E7B6A1B6937
:1039FC009A4206D27B6A1B781946786806F044FB1B
:103A0C0005E07B681B68796A184602F0BFFE7B8D67
:103A1C0003F08003002B7ED097F82D305A1C1346F0
:103A2C009B001344DB007A6813447B627B681B6841
:103A3C001A4697F82D309B0013441B889BB223F435
:103A4C00E14323F070033B847B681B681A4697F8AC
:103A5C002D309B001A443B8C6FEA43436FEA53436F
:103A6C009BB213807B6ADB78032B0CD07B6ADB78F0
:103A7C00002B08D07B6ADB78022B46D17B8D03F4BC
:103A8C008073002B41D17B681B68B3F850309BB21C
:103A9C001A467B6A1B78DB00134402335B007A689E
:103AAC001268134403F580631B88C3F30903FB837B
:103ABC007B6A9A69FB8B9A4206D97B6A9A69FB8B63
:103ACC00D21A7B6A9A6102E07B6A00229A617B6A55
:103ADC009B69002B06D17B6A1B781946786806F027
:103AEC00EEFA18E07B6A5A69FB8B1A447B6A5A61BE
:103AFC007B6ADA69FB8B1A447B6ADA617B681B6828
:103B0C00796A184602F042FE05E07B8D1A46796A06
:103B1C00786800F01BF97B681B68B3F844309BB2E3
:103B2C001BB2002BFFF60AAD002318463837BD46F2
:103B3C0080BD80B588B000AFF860B9601346FB80DB
:103B4C00FB8803F48043002B7ED0FB681B68B3F822
:103B5C0050309BB21A46BB681B78DB00134402330F
:103B6C005B00FA681268134403F580631B88C3F387
:103B7C0009037B83BB689A697B8B9A4206D3BB682B
:103B8C009A697B8BD21ABB689A6102E0BB680022EF
:103B9C009A61BB689B69002B23D1FB681B681A4692
:103BAC00BB681B789B0013441B889BB223F4804397
:103BBC0023F070033B833B8B83F400533B83FB6804
:103BCC001B681A46BB681B789B001A443B8B43F05E
:103BDC007F4343F47F0343F4004343F080039BB2E1
:103BEC001380FB8803F04003002B1FD0FB681B687D
:103BFC001A46BB681B789B0013441B889BB223F4AA
:103C0C00E04323F07003FB82FB681B681A46BB6819
:103C1C001B789B001A44FB8A43F07F4343F47F03D9
:103C2C0043F4004343F0C0039BB213807B8B002B07
:103C3C0000F08780FB681868BB685969BB681A89F3
:103C4C007B8B04F05EFD7CE0FB681B68B3F85030A6
:103C5C009BB21A46BB681B78DB00134406335B002F
:103C6C00FA681268134403F580631B88C3F30903D5
:103C7C007B83BB689A697B8B9A4206D3BB689A6933
:103C8C007B8BD21ABB689A6102E0BB6800229A61F6
:103C9C00BB689B69002B23D1FB681B681A46BB6869
:103CAC001B789B0013441B889BB223F4804323F0A6
:103CBC007003FB83FB8B83F40053FB83FB681B6853
:103CCC001A46BB681B789B001A44FB8B43F07F435E
:103CDC0043F47F0343F4004343F080039BB213800F
:103CEC00FB8803F04003002B1FD1FB681B681A46AE
:103CFC00BB681B789B0013441B889BB223F4E043E6
:103D0C0023F07003BB83FB681B681A46BB681B78E7
:103D1C009B001A44BB8B43F07F4343F47F0343F473
:103D2C00004343F0C0039BB213807B8B002B08D065
:103D3C00FB681868BB685969BB685A897B8B04F0AF
:103D4C00E0FC7B8B18462037BD4680BD80B5A2B009
:103D5C0000AFF860B9601346FB80FB8803F04003AA
:103D6C00002B00F0C781FB681B68B3F850309BB286
:103D7C001A46BB681B78DB00134402335B00FA68FD
:103D8C001268134403F580631B88C3F30903A7F877
:103D9C004E30BB689A69B7F84E309A4207D9BB6867
:103DAC009A69B7F84E30D21ABB689A6102E0BB68C8
:103DBC0000229A61BB689B69002B40F0B980BB68FC
:103DCC005B78002B26D1FB681B68BB62FB681B6809
:103DDC00B3F850309BB21A46BB6A1344BB62BB6843
:103DEC001B781A01BB6A134403F204437B627B6A9F
:103DFC001B889BB223F4F8439AB27B6A1A807B6AC5
:103E0C001B889BB26FEA43436FEA53439AB27B6AB7
:103E1C001A801AE0BB685B78012B16D1FB681B6813
:103E2C003B63FB681B68B3F850309BB21A463B6B84
:103E3C0013443B63BB681B781A013B6B134403F2BE
:103E4C000443FB62FB6A00221A80FB681B683B621E
:103E5C00BB685B78002B26D1FB681B68BB61FB68D9
:103E6C001B68B3F850309BB21A46BB691344BB6154
:103E7C00BB681B781A01BB69134403F20C437B61CA
:103E8C007B691B889BB223F4F8439AB27B691A8036
:103E9C007B691B889BB26FEA43436FEA53439AB228
:103EAC007B691A8017E0BB685B78012B13D1FB6828
:103EBC001B68B3F850309BB21A463B6A13443B6202
:103ECC00BB681B781A013B6A134403F20C43FB6179
:103EDC00FB6900221A80BB681B781946F86806F04B
:103EEC00EEF8FB8803F48043002B00F0D482FB68CF
:103EFC001B681A46BB681B789B0013441B889BB23B
:103F0C0023F4E04323F070037B82FB681B681A46A2
:103F1C00BB681B789B001A447B8A43F07F4343F4B5
:103F2C007F0343F4404343F080039BB21380B2E21F
:103F3C00FB8803F48043002B21D0FB681B681A46D6
:103F4C00BB681B789B0013441B889BB223F4E04393
:103F5C0023F07003A7F84430FB681B681A46BB6853
:103F6C001B789B001A44B7F8443043F07F4343F46A
:103F7C007F0343F4404343F080039BB21380BB6840
:103F8C0093F82430012B40F08682BB685A69B7F84D
:103F9C004E301A44BB685A61BB68DA69B7F84E30C8
:103FAC001A44BB68DA61BB681A6ABB681B699A421F
:103FBC0009D3BB681B693B65BB681A6A3B6DD21A97
:103FCC00BB681A6215E0BB681B6A002B07D1B7F8F7
:103FDC004E303B65BB68002283F8242009E0BB68A7
:103FEC00002283F82420BB681B6A3B65BB68002257
:103FFC001A62BB685B78002B55D1FB681B68BB63EE
:10400C00FB681B68B3F850309BB21A46BB6B134469
:10401C00BB63BB681B781A01BB6B134403F20443EC
:10402C007B633B6D002B12D17B6B1B889BB223F403
:10403C00F8439AB27B6B1A807B6B1B889BB26FEA3E
:10404C0043436FEA53439AB27B6B1A8047E03B6D54
:10405C003E2B11D83B6D5B08BB643B6D03F0010339
:10406C00002B02D0BB6C0133BB64BB6C9BB29B02BC
:10407C009AB27B6B1A8032E03B6D5B09BB643B6D83
:10408C0003F01F03002B02D1BB6C013BBB64BB6C68
:10409C009BB29B029BB26FEA43436FEA53439AB2C3
:1040AC007B6B1A801BE0BB685B78012B17D1FB681C
:1040BC001B683B64FB681B68B3F850309BB21A4614
:1040CC003B6C13443B64BB681B781A013B6C134478
:1040DC0003F20443FB633B6D9AB2FB6B1A80FB68E3
:1040EC001868BB685969BB681A893B6D9BB204F0B0
:1040FC00C3FAD0E1FB681B68B3F850309BB21A4688
:10410C00BB681B78DB00134406335B00FA6812684B
:10411C00134403F580631B88C3F30903A7F84E30DF
:10412C00BB689A69B7F84E309A4207D3BB689A6954
:10413C00B7F84E30D21ABB689A6102E0BB68002215
:10414C009A61BB689B69002B40F0C480BB685B78AC
:10415C00002B26D1FB681B68FB66FB681B68B3F859
:10416C0050309BB21A46FB6E1344FB66BB681B783F
:10417C001A01FB6E134403F20443BB66BB6E1B882F
:10418C009BB223F4F8439AB2BB6E1A80BB6E1B88A9
:10419C009BB26FEA43436FEA53439AB2BB6E1A80E9
:1041AC001AE0BB685B78012B16D1FB681B687B6738
:1041BC00FB681B68B3F850309BB21A467B6F1344F4
:1041CC007B67BB681B781A017B6F134403F20443B3
:1041DC003B673B6F00221A80FB681B68BB67BB68A0
:1041EC005B78002B2FD1FB681B68C7F88030FB680D
:1041FC001B68B3F850309BB21A46D7F88030134482
:10420C00C7F88030BB681B781A01D7F8803013448C
:10421C0003F20C43C7F88430D7F884301B889BB268
:10422C0023F4F8439AB2D7F884301A80D7F8843044
:10423C001B889BB26FEA43436FEA53439AB2D7F899
:10424C0084301A8017E0BB685B78012B13D1FB68B4
:10425C001B68B3F850309BB21A46BB6F1344BB6754
:10426C00BB681B781A01BB6F134403F20C43FB674A
:10427C00FB6F00221A80BB681B781946F86805F0A2
:10428C001EFFFB8803F48043002B40F00481FB6885
:10429C001B681A46BB681B789B0013441B889BB297
:1042AC0023F4E04323F07003A7F84630FB681B6847
:1042BC001A46BB681B789B001A44B7F8463043F08B
:1042CC007F4343F47F0343F4404343F080039BB2AA
:1042DC001380E0E0FB8803F48043002B21D1FB68C2
:1042EC001B681A46BB681B789B0013441B889BB247
:1042FC0023F4E04323F07003A7F84C30FB681B68F1
:10430C001A46BB681B789B001A44B7F84C3043F034
:10431C007F4343F47F0343F4404343F080039BB259
:10432C001380BB6893F82430012B40F0B480BB6839
:10433C005A69B7F84E301A44BB685A61BB68DA69DF
:10434C00B7F84E301A44BB68DA61BB681A6ABB68AE
:10435C001B699A4209D3BB681B693B65BB681A6A27
:10436C003B6DD21ABB681A6215E0BB681B6A002B46
:10437C0007D1B7F84E303B65BB68002283F8242088
:10438C0009E0BB681B6A3B65BB6800221A62BB680C
:10439C00002283F82420FB681B687B66BB685B7873
:1043AC00002B55D1FB681B68FB65FB681B68B3F8D9
:1043BC0050309BB21A46FB6D1344FB65BB681B78EF
:1043CC001A01FB6D134403F20C43BB653B6D002BD0
:1043DC0012D1BB6D1B889BB223F4F8439AB2BB6D10
:1043EC001A80BB6D1B889BB26FEA43436FEA534341
:1043FC009AB2BB6D1A8044E03B6D3E2B11D83B6DDD
:10440C005B087B653B6D03F00103002B02D07B6DD9
:10441C0001337B657B6D9BB29B029AB2BB6D1A809C
:10442C002FE03B6D5B097B653B6D03F01F03002B9D
:10443C0002D17B6D013B7B657B6D9BB29B029BB27A
:10444C006FEA43436FEA53439AB2BB6D1A8018E08C
:10445C00BB685B78012B14D1FB681B68B3F8503038
:10446C009BB21A467B6E13447B66BB681B781A01A1
:10447C007B6E134403F20C433B663B6D9AB23B6E6E
:10448C001A80FB681868BB685969BB685A893B6D10
:10449C009BB204F0F1F8FB681B681A46BB681B78EA
:1044AC009B0013441B889BB223F4E04323F040038E
:1044BC003B823B8A83F010033B823B8A83F02003D0
:1044CC003B82FB681B681A46BB681B789B001A442E
:1044DC003B8A43F07F4343F47F0343F4004343F0B0
:1044EC0080039BB21380002318468837BD4680BDDD
:1044FC0080B487B000AFF8607B600B467B811346BD
:10450C003B817B8903F080039BB2002B0BD07B8912
:10451C0003F007035A1C13469B001344DB00FA6894
:10452C0013447B6109E07A8913469B001344DB003A
:10453C0003F5B473FA6813447B613B89002B07D1F4
:10454C007B6900221A737B689AB27B69DA800BE074
:10455C007B6901221A737B689AB27B691A817B682A
:10456C001B0C9AB27B695A81002318461C37BD4636
:10457C0080BC704780B586B000AF78607B68002B3C
:10458C0001D1012372E27B681B6803F00103002B4D
:10459C0000F08780924B5B6803F00C03042B0CD06B
:1045AC008F4B5B6803F00C03082B12D18C4B5B68B0
:1045BC0003F48033B3F5803F0BD1894B1B6803F4B4
:1045CC000033002B6CD07B685B68002B68D1012317
:1045DC004CE27B685B68B3F5803F06D1804B1B686F
:1045EC007F4A43F4803313602EE07B685B68002BBA
:1045FC000CD17B4B1B687A4A23F480331360784BC5
:10460C001B68774A23F4802313601DE07B685B688A
:10461C00B3F5A02F0CD1724B1B68714A43F4802365
:10462C0013606F4B1B686E4A43F4803313600BE0CE
:10463C006B4B1B686A4A23F480331360684B1B680E
:10464C00674A23F4802313607B685B68002B13D0CC
:10465C00FDF73CF8386108E0FDF738F802463B6995
:10466C00D31A642B01D9032300E25D4B1B6803F4BE
:10467C000033002BF0D014E0FDF728F8386108E087
:10468C00FDF724F802463B69D31A642B01D90323A6
:10469C00ECE1534B1B6803F40033002BF0D100E02A
:1046AC0000BF7B681B6803F00203002B63D04C4BEC
:1046BC005B6803F00C03002B0BD0494B5B6803F0D9
:1046CC000C03082B1CD1464B5B6803F48033002B86
:1046DC0016D1434B1B6803F00203002B05D07B68FB
:1046EC001B69012B01D00123C0E13D4B1B6823F05A
:1046FC00F8027B685B69DB00394913430B603AE0D5
:10470C007B681B69002B20D0364B01221A60FCF70A
:10471C00DDFF386108E0FCF7D9FF02463B69D31A8C
:10472C00022B01D90323A1E12D4B1B6803F00203DB
:10473C00002BF0D02A4B1B6823F0F8027B685B69D6
:10474C00DB00274913430B6015E0264B00221A604F
:10475C00FCF7BCFF386108E0FCF7B8FF02463B6988
:10476C00D31A022B01D9032380E11D4B1B6803F0E4
:10477C000203002BF0D17B681B6803F00803002BAD
:10478C003AD07B689B69002B19D0174B01221A6019
:10479C00FCF79CFF386108E0FCF798FF02463B6988
:1047AC00D31A022B01D9032360E10D4B5B6A03F092
:1047BC000203002BF0D0012000F0C4FA1CE00A4BDD
:1047CC0000221A60FCF782FF38610FE0FCF77EFFD5
:1047DC0002463B69D31A022B08D9032346E100BFDA
:1047EC00001002400000424280044242924B5B6A3D
:1047FC0003F00203002BE9D17B681B6803F0040370
:10480C00002B00F0A6800023FB758B4BDB6903F0BB
:10481C008053002B0DD1884BDB69874A43F08053C2
:10482C00D361854BDB6903F08053BB60BB6801230C
:10483C00FB75824B1B6803F48073002B18D17F4BE4
:10484C001B687E4A43F480731360FCF73FFF3861AA
:10485C0008E0FCF73BFF02463B69D31A642B01D9F5
:10486C00032303E1754B1B6803F48073002BF0D01A
:10487C007B68DB68012B06D16F4B1B6A6E4A43F0D9
:10488C00010313622DE07B68DB68002B0CD16A4BB3
:10489C001B6A694A23F001031362674B1B6A664A61
:1048AC0023F0040313621CE07B68DB68052B0CD13E
:1048BC00614B1B6A604A43F0040313625E4B1B6A34
:1048CC005D4A43F0010313620BE05B4B1B6A5A4ACF
:1048DC0023F001031362584B1B6A574A23F004035D
:1048EC0013627B68DB68002B15D0FCF7EFFE386198
:1048FC000AE0FCF7EBFE02463B69D31A41F2883220
:10490C00934201D90323B1E04B4B1B6A03F0020322
:10491C00002BEED014E0FCF7D9FE38610AE0FCF76E
:10492C00D5FE02463B69D31A41F28832934201D933
:10493C0003239BE0404B1B6A03F00203002BEED1D8
:10494C00FB7D012B05D13C4BDB693B4A23F08053AB
:10495C00D3617B68DB69002B00F08780364B5B688A
:10496C0003F00C03082B61D07B68DB69022B46D16A
:10497C00334B00221A60FCF7A9FE386108E0FCF703
:10498C00A5FE02463B69D31A022B01D903236DE025
:10499C00294B1B6803F00073002BF0D17B681B6A5A
:1049AC00B3F5803F08D1244B5B6823F400327B685D
:1049BC009B68214913434B601F4B5B6823F47412B3
:1049CC007B68196A7B685B6A0B431B4913434B601A
:1049DC001B4B01221A60FCF779FE386108E0FCF7EA
:1049EC0075FE02463B69D31A022B01D903233DE025
:1049FC00114B1B6803F00073002BF0D035E0104B0B
:104A0C0000221A60FCF762FE386108E0FCF75EFEDB
:104A1C0002463B69D31A022B01D9032326E0064B2D
:104A2C001B6803F00073002BF0D11EE07B68DB6980
:104A3C00012B07D1012319E0001002400070004047
:104A4C00600042420B4B5B68FB60FB6803F48032F6
:104A5C007B681B6A9A4206D1FB6803F470127B6870
:104A6C005B6A9A4201D0012300E0002318461837F4
:104A7C00BD4680BD0010024080B584B000AF7860A8
:104A8C0039607B68002B01D10123D0E06A4B1B6895
:104A9C0003F007033A689A4210D9674B1B6823F05E
:104AAC00070265493B6813430B60634B1B6803F0BB
:104ABC0007033A689A4201D00123B8E07B681B686F
:104ACC0003F00203002B20D07B681B6803F0040367
:104ADC00002B05D0594B5B68584A43F4E063536094
:104AEC007B681B6803F00803002B05D0534B5B68F5
:104AFC00524A43F460535360504B5B6823F0F0020E
:104B0C007B689B684D4913434B607B681B6803F0C3
:104B1C000103002B40D07B685B68012B07D1474B0E
:104B2C001B6803F40033002B15D101237FE07B6855
:104B3C005B68022B07D1414B1B6803F00073002B01
:104B4C0009D1012373E03D4B1B6803F00203002BDA
:104B5C0001D101236BE0394B5B6823F003027B68C6
:104B6C005B68364913434B60FCF7B0FDF8600AE014
:104B7C00FCF7ACFD0246FB68D31A41F28832934233
:104B8C0001D9032353E02D4B5B6803F00C027B68C7
:104B9C005B689B009A42EBD1274B1B6803F0070321
:104BAC003A689A4210D2244B1B6823F00702224920
:104BBC003B6813430B60204B1B6803F007033A68F8
:104BCC009A4201D0012332E07B681B6803F0040396
:104BDC00002B08D0194B5B6823F4E0627B68DB6820
:104BEC00164913434B607B681B6803F00803002BCA
:104BFC0009D0124B5B6823F460527B681B69DB00A5
:104C0C000E4913434B6000F021F802460B4B5B68D6
:104C1C001B0903F00F030A49CB5C22FA03F3094A80
:104C2C001360094B1B681846FCF70EFD0023184651
:104C3C001037BD4680BD00BF00200240001002406E
:104C4C0010A60008040000200800002090B48AB0D0
:104C5C0000AF294B3C1D0FCB84E80F0040F2012321
:104C6C003B800023FB610023BB6100237B6200239C
:104C7C007B6100233B62214B5B68FB61FB6903F0AA
:104C8C000C03042B02D0082B03D02BE01C4B3B62F3
:104C9C002BE0FB699B0C03F00F0328333B4413F808
:104CAC00243C7B61FB6903F48033002B12D0134B43
:104CBC005B685B0C03F0010328333B4413F8283C7E
:104CCC00BB617B690E4A03FB02F2BB69B2FBF3F3D7
:104CDC007B6204E07B690B4A02FB03F37B627B6A19
:104CEC003B6202E0064B3B6200BF3B6A184628372A
:104CFC00BD4690BC704700BFB0A500080010024034
:104D0C0000127A0000093D0080B400AF024B1B6812
:104D1C001846BD4680BC70470400002080B500AF2B
:104D2C00FFF7F2FF0246054B5B68DB0A03F0070353
:104D3C000349CB5C22FA03F3184680BD00100240F5
:104D4C0020A6000880B485B000AF78600A4B1B68C1
:104D5C000A4AA2FB03235B0A7A6802FB03F3FB609B
:104D6C0000BFFB685A1EFA60002BF9D100BF00BFD0
:104D7C001437BD4680BC704704000020D34D621030
:104D8C0080B586B000AF786000233B610023FB60E8
:104D9C007B681B6803F00103002B7DD00023FB759F
:104DAC004F4BDB6903F08053002B0DD14C4BDB696F
:104DBC004B4A43F08053D361494BDB6903F080537A
:104DCC00BB60BB680123FB75464B1B6803F4807307
:104DDC00002B18D1434B1B68424A43F48073136079
:104DEC00FCF774FC386108E0FCF770FC02463B6988
:104DFC00D31A642B01D903236DE03A4B1B6803F4DF
:104E0C008073002BF0D0364B1B6A03F44073FB60AD
:104E1C00FB68002B2ED07B685B6803F44073FA6848
:104E2C009A4227D02E4B1B6A23F44073FB602E4B07
:104E3C0001221A602C4B00221A60294AFB6813626B
:104E4C00FB6803F00103002B14D0FCF73FFC386126
:104E5C000AE0FCF73BFC02463B69D31A41F288326C
:104E6C00934201D9032336E01D4B1B6A03F0020366
:104E7C00002BEED01A4B1B6A23F440727B685B68E4
:104E8C00174913430B62FB7D012B05D1144BDB69D6
:104E9C00134A23F08053D3617B681B6803F0020331
:104EAC00002B08D00E4B5B6823F440427B689B6858
:104EBC000B4913434B607B681B6803F01003002BFA
:104ECC0008D0074B5B6823F480027B68DB680449DD
:104EDC0013434B60002318461837BD4680BD00BFF6
:104EEC0000100240007000404004424290B58DB06A
:104EFC0000AF7860584B07F10C040FCB84E80F001F
:104F0C0040F201233B8100237B620023FB620023E0
:104F1C003B620023FB610023BB627B68102B0AD031
:104F2C007B68102B00F28E807B68012B49D07B684C
:104F3C00022B79D086E0494B5B68FB61474B1B68C1
:104F4C0003F08073002B7FD0FB699B0C03F00F03E5
:104F5C0030333B4413F8243C3B62FB6903F480334D
:104F6C00002B17D03D4B5B685B0C03F00103303317
:104F7C003B4413F8283C7B62FB6903F48033002B21
:104F8C000DD0374A7B6AB2FBF3F23B6A02FB03F3A8
:104F9C00FB6204E03B6A334A02FB03F3FB622F4BD8
:104FAC005B6803F48003B3F5800F02D1FB6ABB622C
:104FBC004AE0FB6A5B002C4AA2FB03235B08BB6242
:104FCC0042E0264B1B6AFB61FB6903F44073B3F5AB
:104FDC00807F08D1FB6903F00203002B03D04FF450
:104FEC000043BB621FE0FB6903F44073B3F5007F21
:104FFC0009D11A4B5B6A03F00203002B03D049F66C
:10500C004043BB620FE0FB6903F44073B3F5407F90
:10501C001CD1124B1B6803F40033002B16D04FF23B
:10502C002443BB6212E011E0FFF778FE02460B4B03
:10503C005B689B0B03F0030301335B00B2FBF3F3E0
:10504C00BB6204E000BF02E000BF00E000BFBB6A2F
:10505C0018463437BD4690BDC0A50008001002406C
:10506C0000127A0000093D00ABAAAAAA80B582B052
:10507C0000AF78607B68002B01D1012341E07B6895
:10508C0093F83D30DBB2002B06D17B68002283F80D
:10509C003C207868FCF7C0F97B68022283F83D203D
:1050AC007B681A687B6804331946104600F0AAFA2C
:1050BC007B68012283F846207B68012283F83E201E
:1050CC007B68012283F83F207B68012283F8402013
:1050DC007B68012283F841207B68012283F84220FF
:1050EC007B68012283F843207B68012283F84420EB
:1050FC007B68012283F845207B68012283F83D20E0
:10510C00002318460837BD4680BD80B582B000AF7D
:10511C0078607B68002B01D1012341E07B6893F818
:10512C003D30DBB2002B06D17B68002283F83C209B
:10513C00786800F039F87B68022283F83D207B68A0
:10514C001A687B6804331946104600F05BFA7B68DA
:10515C00012283F846207B68012283F83E207B687D
:10516C00012283F83F207B68012283F840207B6872
:10517C00012283F841207B68012283F842207B685E
:10518C00012283F843207B68012283F844207B684A
:10519C00012283F845207B68012283F83D200023FF
:1051AC0018460837BD4680BD80B483B000AF786028
:1051BC0000BF0C37BD4680BC7047000080B584B082
:1051CC0000AF786039603B68002B09D17B6893F89D
:1051DC003E30DBB2012B14BF01230023DBB222E0F3
:1051EC003B68042B09D17B6893F83F30DBB2012B71
:1051FC0014BF01230023DBB215E03B68082B09D157
:10520C007B6893F84030DBB2012B14BF01230023E1
:10521C00DBB208E07B6893F84130DBB2012B14BFA2
:10522C0001230023DBB2002B01D001235EE03B689D
:10523C00002B04D17B68022283F83E2013E03B68EC
:10524C00042B04D17B68022283F83F200BE03B68DF
:10525C00082B04D17B68022283F8402003E07B6892
:10526C00022283F841207B681B68012239681846AA
:10527C0000F048FC7B681B681E4A934207D17B6890
:10528C001B685A6C7B681B6842F400425A647B684A
:10529C001B68184A93420ED07B681B68B3F1804F91
:1052AC0009D07B681B68144A934204D07B681B6846
:1052BC00124A934211D17B681B689B6803F0070369
:1052CC00FB60FB68062B10D07B681B681A687B6838
:1052DC001B6842F001021A6007E07B681B681A68C1
:1052EC007B681B6842F001021A60002318461037D5
:1052FC00BD4680BD002C0140000400400008004069
:10530C0080B584B000AFF860B9607A60FB6893F840
:10531C003C30012B01D10223ACE0FB68012283F865
:10532C003C207B680C2B00F29F8001A252F823F0EA
:10533C007153000875540008755400087554000822
:10534C00B1530008755400087554000875540008D2
:10535C00F353000875540008755400087554000880
:10536C0033540008FB681B68B968184600F0ACF9A8
:10537C00FB681B689A69FB681B6842F008029A611B
:10538C00FB681B689A69FB681B6822F004029A612F
:10539C00FB681B689969BB681A69FB681B680A4340
:1053AC009A6162E0FB681B68B968184600F0F2F974
:1053BC00FB681B689A69FB681B6842F400629A617F
:1053CC00FB681B689A69FB681B6822F480629A610F
:1053DC00FB681B689969BB681B691A02FB681B6830
:1053EC000A439A6141E0FB681B68B968184600F0F3
:1053FC003BFAFB681B68DA69FB681B6842F0080221
:10540C00DA61FB681B68DA69FB681B6822F004022E
:10541C00DA61FB681B68D969BB681A69FB681B6891
:10542C000A43DA6121E0FB681B68B968184600F092
:10543C0085FAFB681B68DA69FB681B6842F400623A
:10544C00DA61FB681B68DA69FB681B6822F480620E
:10545C00DA61FB681B68D969BB681B691A02FB68B7
:10546C001B680A43DA6100E000BFFB68002283F886
:10547C003C20002318461037BD4680BD80B584B053
:10548C0000AF786039607B6893F83C30012B01D118
:10549C000223B3E07B68012283F83C207B68022264
:1054AC0083F83D207B681B689B68FB60FB6823F0DE
:1054BC007703FB60FB6823F47F43FB607B681B680E
:1054CC00FA689A603B681B68B3F5005F3ED0B3F591
:1054DC00005F00F28780B3F5805F00F08580B3F544
:1054EC00805F7FD8702B1AD0702B7BD8602B50D05C
:1054FC00602B77D8502B3CD0502B73D8402B58D0E6
:10550C00402B6FD8302B64D0302B6BD8202B60D035
:10551C00202B67D8002B5CD0102B5AD062E07B6814
:10552C0018683B6899683B685A683B68DB6800F010
:10553C00CAFA7B681B689B68FB60FB6843F07703C7
:10554C00FB607B681B68FA689A604EE07B681868A1
:10555C003B6899683B685A683B68DB6800F0B3FAB3
:10556C007B681B689A687B681B6842F480429A606F
:10557C003BE07B6818683B6859683B68DB681A46F7
:10558C0000F02AFA7B681B685021184600F081FA5B
:10559C002BE07B6818683B6859683B68DB681A46E7
:1055AC0000F048FA7B681B686021184600F071FA1D
:1055BC001BE07B6818683B6859683B68DB681A46D7
:1055CC0000F00AFA7B681B684021184600F061FA6B
:1055DC000BE07B681A683B681B681946104600F0A4
:1055EC0058FA02E000BF00E000BF7B68012283F89C
:1055FC003D207B68002283F83C200023184610379E
:10560C00BD4680BD80B485B000AF786039607B68E2
:10561C001B68FB607B68294A93420BD07B68B3F113
:10562C00804F07D07B68264A934203D07B68254A7B
:10563C00934208D1FB6823F07003FB603B685B6806
:10564C00FA681343FB607B681C4A93420BD07B685F
:10565C00B3F1804F07D07B68194A934203D07B6823
:10566C00184A934208D1FB6823F44073FB603B68F3
:10567C00DB68FA681343FB60FB6823F080023B682D
:10568C005B691343FB607B68FA681A603B689A6835
:10569C007B68DA623B681A687B689A627B68074AA7
:1056AC00934203D13B681A697B681A637B680122B9
:1056BC005A6100BF1437BD4680BC7047002C0140B6
:1056CC00000400400008004080B487B000AF786050
:1056DC0039607B681B6A23F001027B681A627B6865
:1056EC001B6A7B617B685B683B617B689B69FB60C9
:1056FC00FB6823F07003FB60FB6823F00303FB6083
:10570C003B681B68FA681343FB607B6923F0020358
:10571C007B613B689B687A6913437B617B681C4A9D
:10572C0093420CD17B6923F008037B613B68DB68F7
:10573C007A6913437B617B6923F004037B617B688B
:10574C00134A934211D13B6923F480733B613B694B
:10575C0023F400733B613B685B693A6913433B611B
:10576C003B689B693A6913433B617B683A695A60B1
:10577C007B68FA689A613B685A687B685A637B68F5
:10578C007A691A6200BF1C37BD4680BC704700BFE7
:10579C00002C014080B487B000AF786039607B6822
:1057AC001B6A23F010027B681A627B681B6A7B61A0
:1057BC007B685B683B617B689B69FB60FB6823F4DF
:1057CC00E043FB60FB6823F44073FB603B681B68A1
:1057DC001B02FA681343FB607B6923F020037B6197
:1057EC003B689B681B017A6913437B617B681D4A8C
:1057FC0093420DD17B6923F080037B613B68DB68AE
:10580C001B017A6913437B617B6923F040037B6145
:10581C007B68144A934213D13B6923F480633B6148
:10582C003B6923F400633B613B685B699B003A690D
:10583C0013433B613B689B699B003A6913433B6193
:10584C007B683A695A607B68FA689A613B685A6867
:10585C007B689A637B687A691A6200BF1C37BD4605
:10586C0080BC7047002C014080B487B000AF7860DA
:10587C0039607B681B6A23F480727B681A627B68D0
:10588C001B6A7B617B685B683B617B68DB69FB60E7
:10589C00FB6823F07003FB60FB6823F00303FB60E1
:1058AC003B681B68FA681343FB607B6923F4007345
:1058BC007B613B689B681B027A6913437B617B6845
:1058CC001D4A93420DD17B6923F400637B613B68D5
:1058DC00DB681B027A6913437B617B6923F4806369
:1058EC007B617B68144A934213D13B6923F4805348
:1058FC003B613B6923F400533B613B685B691B01D3
:10590C003A6913433B613B689B691B013A6913433A
:10591C003B617B683A695A607B68FA68DA613B687C
:10592C005A687B68DA637B687A691A6200BF1C3735
:10593C00BD4680BC704700BF002C014080B487B0CE
:10594C0000AF786039607B681B6A23F480527B68F7
:10595C001A627B681B6A3B617B685B687B617B6856
:10596C00DB69FB60FB6823F4E043FB60FB6823F41A
:10597C004073FB603B681B681B02FA681343FB60B7
:10598C003B6923F400533B613B689B681B033A69FA
:10599C0013433B617B680F4A934209D17B6923F423
:1059AC0080437B613B685B699B017A6913437B6134
:1059BC007B687A695A607B68FA68DA613B685A6876
:1059CC007B681A647B683A691A6200BF1C37BD4653
:1059DC0080BC7047002C014080B487B000AFF860E9
:1059EC00B9607A60FB681B6A7B61FB681B6A23F0F9
:1059FC000102FB681A62FB689B693B613B6923F0FF
:105A0C00F0033B617B681B013A6913433B617B6983
:105A1C0023F00A037B617A69BB6813437B61FB68E3
:105A2C003A699A61FB687A691A6200BF1C37BD46F5
:105A3C0080BC704780B487B000AFF860B9607A6002
:105A4C00FB681B6A23F01002FB681A62FB689B69F7
:105A5C007B61FB681B6A3B617B6923F470437B6150
:105A6C007B681B037A6913437B613B6923F0A003BA
:105A7C003B61BB681B013A6913433B61FB687A6964
:105A8C009A61FB683A691A6200BF1C37BD4680BC3C
:105A9C00704780B485B000AF786039607B689B68D4
:105AAC00FB60FB6823F07003FB603A68FB681343F0
:105ABC0043F00703FB607B68FA689A6000BF1437F9
:105ACC00BD4680BC704780B487B000AFF860B96049
